:1000000001308A004A290000FF00030E8301A50089
:100010007F08A4000A08AB008A01A40E0408A60009
:100020002008A7002108A8002208A9002308AA0088
:10003000831383128B1E1E280B192F282608840079
:100040002708A0002808A1002908A2002A08A30068
:100050002B088A00250E8300FF0E7F0E09008A11EF
:100060003728B001AF01AE013230AD000800FF30DB
:10007000AD07031CAE07031CAF07031CB007AD0898
:10008000031D4E28AE08031D4E28AF08031D4E2841
:10009000B008031D4E2831200130B500FF30B107F4
:1000A000031CB207031CB307031CB407B108031DEC
:1000B0006A28B208031D6A28B308031D6A28B40819
:1000C000031D6A28B401B3010230B2004C30B10004
:1000D0000130B6000030A1000B118A111E2839082A
:1000E000F43E0318EA280C3EEB28BA0803197D28D1
:1000F0008316851283128516812883168512831232
:100100008512EA28BA0803198A2883160512831271
:1001100005168E288316051283120512EA28BA08DE
:100120000319972883168711831287159B28831636
:10013000871183128711EA28BA080319A4288316A5
:10014000051083120514A8288316051083120510C4
:10015000EA28BA080319B12883168510831285147A
:10016000B5288316851083128510EA28BA0803196A
:10017000BE288316051183120515C22883160511A2
:1001800083120511EA28BA080319CB288316071031
:1001900083120714CF288316071083120710EA284A
:1001A000BA080319D8288316871083128714DC280D
:1001B0008316871083128710EA28BA080319E528E6
:1001C0008316071183120715E92883160711831276
:1001D0000711EA2808000A108A100A1182077528F8
:1001E0008228EA28EA28EA288F289C28A928B62805
:1001F000C328D028DD280130B900BA016F200530AE
:10020000B900BA016F200630B900BA016F2007307B
:10021000B900BA016F200830B900BA016F20093067
:10022000B900BA016F200A30B900BA016F200B3053
:10023000B900BA016F208A1179290830B90001305C
:10024000BA006F208A117A290730B9000130BA004C
:100250006F208A117B293120B501B50803192D299A
:1002600008000830B900BA016F208A117D290730D3
:10027000B900BA016F208A117E290630B900013019
:10028000BA006F208A117F290630B900BA016F20A9
:100290008A118129840183131F30830571308316ED
:1002A0008F000F088312B001AF01AE013230AD00F4
:1002B000B401B3010230B2004C30B100B501B60157
:1002C0001F1300308316910083129A0107309900A2
:1002D000B801B70181010830980083160108C039C0
:1002E0000538810064008C1683128B16C0308B0495
:1002F000FB281D2924292B21312937293D292B2190
:0603000044297929630085
:02400E00C435B7
:00000001FF
;PIC16F688
;CRC=6D3C  CREATED="03-Jun-17 14:03"
